{
  "contractName": "Pool",
  "abi": [
    {
      "anonymous": false,
      "inputs": [
        {
          "indexed": false,
          "internalType": "uint256",
          "name": "id",
          "type": "uint256"
        },
        {
          "indexed": false,
          "internalType": "uint256",
          "name": "amount1",
          "type": "uint256"
        },
        {
          "indexed": false,
          "internalType": "string",
          "name": "token1",
          "type": "string"
        },
        {
          "indexed": false,
          "internalType": "uint256",
          "name": "amount2",
          "type": "uint256"
        },
        {
          "indexed": false,
          "internalType": "string",
          "name": "token2",
          "type": "string"
        },
        {
          "indexed": false,
          "internalType": "uint256",
          "name": "expiryDate",
          "type": "uint256"
        },
        {
          "indexed": false,
          "internalType": "uint256",
          "name": "executionDate",
          "type": "uint256"
        },
        {
          "indexed": false,
          "internalType": "address payable",
          "name": "owner",
          "type": "address"
        },
        {
          "indexed": false,
          "internalType": "bool",
          "name": "matched",
          "type": "bool"
        }
      ],
      "name": "OfferCreated",
      "type": "event"
    },
    {
      "anonymous": false,
      "inputs": [
        {
          "indexed": false,
          "internalType": "uint256",
          "name": "id",
          "type": "uint256"
        },
        {
          "indexed": false,
          "internalType": "uint256",
          "name": "amount1",
          "type": "uint256"
        },
        {
          "indexed": false,
          "internalType": "string",
          "name": "token1",
          "type": "string"
        },
        {
          "indexed": false,
          "internalType": "uint256",
          "name": "amount2",
          "type": "uint256"
        },
        {
          "indexed": false,
          "internalType": "string",
          "name": "token2",
          "type": "string"
        },
        {
          "indexed": false,
          "internalType": "uint256",
          "name": "expiryDate",
          "type": "uint256"
        },
        {
          "indexed": false,
          "internalType": "uint256",
          "name": "executionDate",
          "type": "uint256"
        },
        {
          "indexed": false,
          "internalType": "address",
          "name": "owner",
          "type": "address"
        },
        {
          "indexed": false,
          "internalType": "bool",
          "name": "matched",
          "type": "bool"
        }
      ],
      "name": "OfferMatched",
      "type": "event"
    },
    {
      "constant": true,
      "inputs": [],
      "name": "amount1",
      "outputs": [
        {
          "internalType": "uint256",
          "name": "",
          "type": "uint256"
        }
      ],
      "payable": false,
      "stateMutability": "view",
      "type": "function"
    },
    {
      "constant": true,
      "inputs": [],
      "name": "amount2",
      "outputs": [
        {
          "internalType": "uint256",
          "name": "",
          "type": "uint256"
        }
      ],
      "payable": false,
      "stateMutability": "view",
      "type": "function"
    },
    {
      "constant": true,
      "inputs": [],
      "name": "date",
      "outputs": [
        {
          "internalType": "uint256",
          "name": "",
          "type": "uint256"
        }
      ],
      "payable": false,
      "stateMutability": "view",
      "type": "function"
    },
    {
      "constant": true,
      "inputs": [],
      "name": "offerCount",
      "outputs": [
        {
          "internalType": "uint256",
          "name": "",
          "type": "uint256"
        }
      ],
      "payable": false,
      "stateMutability": "view",
      "type": "function"
    },
    {
      "constant": true,
      "inputs": [
        {
          "internalType": "uint256",
          "name": "",
          "type": "uint256"
        }
      ],
      "name": "offers",
      "outputs": [
        {
          "internalType": "uint256",
          "name": "id",
          "type": "uint256"
        },
        {
          "internalType": "uint256",
          "name": "amount1",
          "type": "uint256"
        },
        {
          "internalType": "string",
          "name": "token1",
          "type": "string"
        },
        {
          "internalType": "uint256",
          "name": "amount2",
          "type": "uint256"
        },
        {
          "internalType": "string",
          "name": "token2",
          "type": "string"
        },
        {
          "internalType": "uint256",
          "name": "expiryDate",
          "type": "uint256"
        },
        {
          "internalType": "uint256",
          "name": "executionDate",
          "type": "uint256"
        },
        {
          "internalType": "address payable",
          "name": "owner",
          "type": "address"
        },
        {
          "internalType": "bool",
          "name": "matched",
          "type": "bool"
        }
      ],
      "payable": false,
      "stateMutability": "view",
      "type": "function"
    },
    {
      "constant": true,
      "inputs": [],
      "name": "token1",
      "outputs": [
        {
          "internalType": "string",
          "name": "",
          "type": "string"
        }
      ],
      "payable": false,
      "stateMutability": "view",
      "type": "function"
    },
    {
      "constant": true,
      "inputs": [],
      "name": "token2",
      "outputs": [
        {
          "internalType": "string",
          "name": "",
          "type": "string"
        }
      ],
      "payable": false,
      "stateMutability": "view",
      "type": "function"
    },
    {
      "constant": false,
      "inputs": [
        {
          "internalType": "uint256",
          "name": "_amount1",
          "type": "uint256"
        },
        {
          "internalType": "string",
          "name": "_token1",
          "type": "string"
        },
        {
          "internalType": "uint256",
          "name": "_amount2",
          "type": "uint256"
        },
        {
          "internalType": "string",
          "name": "_token2",
          "type": "string"
        },
        {
          "internalType": "uint256",
          "name": "_expiryDate",
          "type": "uint256"
        },
        {
          "internalType": "uint256",
          "name": "_executionDate",
          "type": "uint256"
        }
      ],
      "name": "createOffer",
      "outputs": [],
      "payable": true,
      "stateMutability": "payable",
      "type": "function"
    },
    {
      "constant": false,
      "inputs": [
        {
          "internalType": "uint256",
          "name": "_id",
          "type": "uint256"
        },
        {
          "internalType": "string",
          "name": "_token2",
          "type": "string"
        }
      ],
      "name": "matchOffer",
      "outputs": [],
      "payable": true,
      "stateMutability": "payable",
      "type": "function"
    }
  ],
  "bytecode": "0x6080604052600060055534801561001557600080fd5b5061128b806100256000396000f3fe6080604052600436106100865760003560e01c80633faae0b4116100595780633faae0b41461019c5780638a72ea6a14610261578063d21220a7146103e2578063d229975214610472578063f400fde4146105ec57610086565b8063057bfcc71461008b5780631115c24d146100b657806325be124e146100e1578063323046b114610171575b600080fd5b34801561009757600080fd5b506100a0610617565b6040518082815260200191505060405180910390f35b3480156100c257600080fd5b506100cb61061d565b6040518082815260200191505060405180910390f35b3480156100ed57600080fd5b506100f6610623565b6040518080602001828103825283818151815260200191508051906020019080838360005b8381101561013657808201518184015260208101905061011b565b50505050905090810190601f1680156101635780820380516001836020036101000a031916815260200191505b509250505060405180910390f35b34801561017d57600080fd5b506101866106c1565b6040518082815260200191505060405180910390f35b61025f600480360360408110156101b257600080fd5b8101908080359060200190929190803590602001906401000000008111156101d957600080fd5b8201836020820111156101eb57600080fd5b8035906020019184600183028401116401000000008311171561020d57600080fd5b91908080601f016020809104026020016040519081016040528093929190818152602001838380828437600081840152601f19601f8201169050808301925050505050505091929192905050506106c7565b005b34801561026d57600080fd5b5061029a6004803603602081101561028457600080fd5b8101908080359060200190929190505050610bdb565b604051808a815260200189815260200180602001888152602001806020018781526020018681526020018573ffffffffffffffffffffffffffffffffffffffff1673ffffffffffffffffffffffffffffffffffffffff1681526020018415151515815260200183810383528a818151815260200191508051906020019080838360005b8381101561033857808201518184015260208101905061031d565b50505050905090810190601f1680156103655780820380516001836020036101000a031916815260200191505b50838103825288818151815260200191508051906020019080838360005b8381101561039e578082015181840152602081019050610383565b50505050905090810190601f1680156103cb5780820380516001836020036101000a031916815260200191505b509b50505050505050505050505060405180910390f35b3480156103ee57600080fd5b506103f7610d86565b6040518080602001828103825283818151815260200191508051906020019080838360005b8381101561043757808201518184015260208101905061041c565b50505050905090810190601f1680156104645780820380516001836020036101000a031916815260200191505b509250505060405180910390f35b6105ea600480360360c081101561048857600080fd5b8101908080359060200190929190803590602001906401000000008111156104af57600080fd5b8201836020820111156104c157600080fd5b803590602001918460018302840111640100000000831117156104e357600080fd5b91908080601f016020809104026020016040519081016040528093929190818152602001838380828437600081840152601f19601f820116905080830192505050505050509192919290803590602001909291908035906020019064010000000081111561055057600080fd5b82018360208201111561056257600080fd5b8035906020019184600183028401116401000000008311171561058457600080fd5b91908080601f016020809104026020016040519081016040528093929190818152602001838380828437600081840152601f19601f8201169050808301925050505050505091929192908035906020019092919080359060200190929190505050610e24565b005b3480156105f857600080fd5b50610601611147565b6040518082815260200191505060405180910390f35b60025481565b60055481565b60048054600181600116156101000203166002900480601f0160208091040260200160405190810160405280929190818152602001828054600181600116156101000203166002900480156106b95780601f1061068e576101008083540402835291602001916106b9565b820191906000526020600020905b81548152906001019060200180831161069c57829003601f168201915b505050505081565b60005481565b6106cf61114d565b60066000848152602001908152602001600020604051806101200160405290816000820154815260200160018201548152602001600282018054600181600116156101000203166002900480601f01602080910402602001604051908101604052809291908181526020018280546001816001161561010002031660029004801561079b5780601f106107705761010080835404028352916020019161079b565b820191906000526020600020905b81548152906001019060200180831161077e57829003601f168201915b5050505050815260200160038201548152602001600482018054600181600116156101000203166002900480601f0160208091040260200160405190810160405280929190818152602001828054600181600116156101000203166002900480156108475780601f1061081c57610100808354040283529160200191610847565b820191906000526020600020905b81548152906001019060200180831161082a57829003601f168201915b5050505050815260200160058201548152602001600682015481526020016007820160009054906101000a900473ffffffffffffffffffffffffffffffffffffffff1673ffffffffffffffffffffffffffffffffffffffff1673ffffffffffffffffffffffffffffffffffffffff1681526020016007820160149054906101000a900460ff161515151581525050905060008160e001519050600082600001511180156108fa5750600554826000015111155b61090357600080fd5b8161010001511561091357600080fd5b3373ffffffffffffffffffffffffffffffffffffffff168173ffffffffffffffffffffffffffffffffffffffff16141561094c57600080fd5b6001826101000190151590811515815250508160066000868152602001908152602001600020600082015181600001556020820151816001015560408201518160020190805190602001906109a29291906111b1565b506060820151816003015560808201518160040190805190602001906109c99291906111b1565b5060a0820151816005015560c0820151816006015560e08201518160070160006101000a81548173ffffffffffffffffffffffffffffffffffffffff021916908373ffffffffffffffffffffffffffffffffffffffff1602179055506101008201518160070160146101000a81548160ff0219169083151502179055509050507f0415ab8950db8277ff1c3cfc2b3c59c380c4c72023be2171dd1395c24467423360055483602001518460400151856060015186608001518760a001518860c00151336001604051808a815260200189815260200180602001888152602001806020018781526020018681526020018573ffffffffffffffffffffffffffffffffffffffff1673ffffffffffffffffffffffffffffffffffffffff1681526020018415151515815260200183810383528a818151815260200191508051906020019080838360005b83811015610b2c578082015181840152602081019050610b11565b50505050905090810190601f168015610b595780820380516001836020036101000a031916815260200191505b50838103825288818151815260200191508051906020019080838360005b83811015610b92578082015181840152602081019050610b77565b50505050905090810190601f168015610bbf5780820380516001836020036101000a031916815260200191505b509b50505050505050505050505060405180910390a150505050565b6006602052806000526040600020600091509050806000015490806001015490806002018054600181600116156101000203166002900480601f016020809104026020016040519081016040528092919081815260200182805460018160011615610100020316600290048015610c935780601f10610c6857610100808354040283529160200191610c93565b820191906000526020600020905b815481529060010190602001808311610c7657829003601f168201915b505050505090806003015490806004018054600181600116156101000203166002900480601f016020809104026020016040519081016040528092919081815260200182805460018160011615610100020316600290048015610d375780601f10610d0c57610100808354040283529160200191610d37565b820191906000526020600020905b815481529060010190602001808311610d1a57829003601f168201915b5050505050908060050154908060060154908060070160009054906101000a900473ffffffffffffffffffffffffffffffffffffffff16908060070160149054906101000a900460ff16905089565b60038054600181600116156101000203166002900480601f016020809104026020016040519081016040528092919081815260200182805460018160011615610100020316600290048015610e1c5780601f10610df157610100808354040283529160200191610e1c565b820191906000526020600020905b815481529060010190602001808311610dff57829003601f168201915b505050505081565b6000855111610e3257600080fd5b6000835111610e4057600080fd5b60008611610e4d57600080fd5b60008411610e5a57600080fd5b428211610e6657600080fd5b818111610e7257600080fd5b60056000815480929190600101919050555060405180610120016040528060055481526020018781526020018681526020018581526020018481526020018381526020018281526020013373ffffffffffffffffffffffffffffffffffffffff1681526020016000151581525060066000600554815260200190815260200160002060008201518160000155602082015181600101556040820151816002019080519060200190610f249291906111b1565b50606082015181600301556080820151816004019080519060200190610f4b9291906111b1565b5060a0820151816005015560c0820151816006015560e08201518160070160006101000a81548173ffffffffffffffffffffffffffffffffffffffff021916908373ffffffffffffffffffffffffffffffffffffffff1602179055506101008201518160070160146101000a81548160ff0219169083151502179055509050507f2763538d262efdb79436bb60c4198b4f1cb9f26db2d4b1d182c51f652c2634c8600554878787878787336000604051808a815260200189815260200180602001888152602001806020018781526020018681526020018573ffffffffffffffffffffffffffffffffffffffff1673ffffffffffffffffffffffffffffffffffffffff1681526020018415151515815260200183810383528a818151815260200191508051906020019080838360005b8381101561109657808201518184015260208101905061107b565b50505050905090810190601f1680156110c35780820380516001836020036101000a031916815260200191505b50838103825288818151815260200191508051906020019080838360005b838110156110fc5780820151818401526020810190506110e1565b50505050905090810190601f1680156111295780820380516001836020036101000a031916815260200191505b509b50505050505050505050505060405180910390a1505050505050565b60015481565b60405180610120016040528060008152602001600081526020016060815260200160008152602001606081526020016000815260200160008152602001600073ffffffffffffffffffffffffffffffffffffffff1681526020016000151581525090565b828054600181600116156101000203166002900490600052602060002090601f016020900481019282601f106111f257805160ff1916838001178555611220565b82800160010185558215611220579182015b8281111561121f578251825591602001919060010190611204565b5b50905061122d9190611231565b5090565b61125391905b8082111561124f576000816000905550600101611237565b5090565b9056fea265627a7a723158208f02000d01ee4028b4869d40e4d017f8205edb18918562ef93c92d46677966ed64736f6c63430005100032",
  "source": "pragma solidity >=0.4.22 <0.7.0;\r\n\r\n\r\ncontract Pool{\r\n    uint public date;\r\n    uint256 public amount1; \r\n    uint256 public amount2; \r\n    string public token1; \r\n    string public token2;\r\n    //uint256 public expiryDate,  // USING TIMESTAMP\r\n    //luint256 public executionDate\r\n    \r\n    uint public offerCount = 0;\r\n    mapping (uint => Offer) public offers;\r\n    \r\n    struct Offer {\r\n        uint  id;\r\n        uint256  amount1; \r\n        string  token1; \r\n        uint256  amount2;\r\n        string  token2;\r\n        uint256  expiryDate;  // USING TIMESTAMP\r\n        uint256  executionDate;\r\n        address payable owner; \r\n        bool matched;\r\n    }\r\n    \r\n    event OfferCreated(\r\n        uint  id,\r\n        uint256  amount1,\r\n        string  token1,\r\n        uint256  amount2,\r\n        string  token2,\r\n        uint256  expiryDate, // USING TIMESTAMP\r\n        uint256  executionDate,\r\n        address payable owner, \r\n        bool matched\r\n        );\r\n    \r\n    event OfferMatched(\r\n        uint  id,\r\n        uint256  amount1,\r\n        string  token1,\r\n        uint256  amount2,\r\n        string  token2,\r\n        uint256  expiryDate, // USING TIMESTAMP\r\n        uint256  executionDate,\r\n        address  owner, \r\n        bool matched\r\n        );\r\n    \r\n    \r\n    function createOffer (\r\n        uint256 _amount1,\r\n        string memory _token1,\r\n        uint256 _amount2,\r\n        string memory _token2,\r\n        uint256 _expiryDate, // USING TIMESTAMP\r\n        uint256 _executionDate) public payable{\r\n            require(bytes(_token1).length > 0);\r\n            require(bytes(_token2).length > 0);\r\n            require(_amount1 > 0);\r\n            require(_amount2 > 0);\r\n            require(_expiryDate > now);\r\n            require(_executionDate > _expiryDate);\r\n            //require(msg.value >= _amount1);\r\n            \r\n            offerCount ++;\r\n            offers[offerCount] = Offer(offerCount,_amount1, _token1, _amount2, _token2, _expiryDate, _executionDate, msg.sender, false);\r\n            \r\n            emit OfferCreated(offerCount,_amount1, _token1, _amount2, _token2, _expiryDate, _executionDate, msg.sender, false );\r\n        }\r\n        \r\n    function matchOffer(\r\n        uint _id,\r\n        string memory _token2\r\n        \r\n        )public payable{\r\n        //fetch the offerCount\r\n        Offer memory _offer = offers[_id];\r\n        //fetch the creater of the offer\r\n        address payable _creator = _offer.owner;\r\n        \r\n        // _token2 = _offer.token2;\r\n        // _amount2 = _offer.amount2;\r\n        \r\n        //make sure offer has a valid id\r\n        require (_offer.id >0 && _offer.id <= offerCount);\r\n        require(!_offer.matched);\r\n        require(_creator != msg.sender);\r\n        \r\n        // Transfer ownership to the buyer\r\n        //_offer.owner = msg.sender + _creator;        \r\n        \r\n        //changing status of offer\r\n        _offer.matched = true;\r\n        //update offer \r\n        offers[_id] = _offer;\r\n        //transfer money\r\n        //_creator.transfer(msg.value);\r\n        emit OfferMatched(offerCount, _offer.amount1,  _offer.token1,  _offer.amount2,  _offer.token2,  _offer.expiryDate,  _offer.executionDate, msg.sender, true);\r\n    }\r\n}",
  "sourcePath": "C:/Users/Phuong Khuc/OneDrive/Desktop/web/my-app/contracts/Pool.sol",
  "compiler": {
    "name": "solc",
    "version": "0.5.16+commit.9c3226ce.Emscripten.clang"
  },
  "schemaVersion": "3.2.3",
  "updatedAt": "2020-08-12T10:32:40.091Z",
  "devdoc": {
    "methods": {}
  },
  "userdoc": {
    "methods": {}
  }
}